:020000040800F2
:1000000000500020EDA7000899A800088D93000873
:1000100099A8000899A8000899A800080000000005
:1000200000000000000000000000000099A8000887
:1000300099A800080000000099A800087D93000816
:1000400099A8000899A8000899A8000899A800088C
:1000500099A8000899A8000899A8000899A800087C
:1000600099A8000899A8000899A8000899A800086C
:1000700099A8000899A800088D88000899A8000888
:10008000C588000899A8000899A8000899A8000840
:1000900099A8000899A8000899A8000899A800083C
:1000A00099A8000899A8000899A80008D98700080D
:1000B000D1870008C5870008B987000801890008B2
:1000C000F9880008FD880008F588000899A800084C
:1000D00099A8000851880008E587000899A8000839
:1000E00099A8000899A8000899A800080000000035
:1000F0000000000000000000000000000000000000
:0C01000000000000000000005FF808F1A3
:100110002DE9F04F6B4B6C4D6C4F2B6000236B60E7
:100120006B4BA1B01B8803F5FF3303F5FF739B02F4
:100130003B6001F049FF18B903F080F903F0ACF817
:1001400008F022FF00230B93624C0C930D934FF4A5
:10015000E0130E932368604A43F48033917B23605D
:10016000A369904643F01003A361236803F40033AE
:100170000C930B9B01330B930C9B1BB90B9BB3F59F
:10018000A06FF2D12268534B12F4003201D0022347
:1001900015E0186840F0010018600B92236803F026
:1001A00002030C930B9B01330B930C9B1BB90B9B12
:1001B000B3F5A06FF2D123689A0733D501230D93CD
:1001C000464B1A6842F010021A601A6822F00302C5
:1001D0001A601A6842F002021A606368636063681A
:1001E0006360636843F4806363603D4B1A68043B5B
:1001F00022F070425A603B4A7A60626822F47C12B4
:1002000062605A6842F000425A60DA6822F40042A2
:10021000DA609B681B0406D52C4B334A5A604FF4B6
:10022000801302E0FEE74FF4E0130E930D9B012BC9
:1002300016D0022B18D169B10E9BB3F5801F02D1E5
:100240004FF4A01305E00E9BB3F5E01F02D14FF46D
:1002500000130E9362680E9B134343F4803302E055
:10026000636843F460136360236843F08073236022
:100270002268184B9601FBD55A6822F003025A6097
:100280005A6842F002025A606368124A03F00C0393
:10029000082B0693F8D15168144B01F00C01042986
:1002A00003D0082904D00F4A00E07A681A6029E0D8
:1002B00051685068C1F38341C00301F1020119D4B0
:1002C0000B4A1DE0015700083C07002014000020E5
:1002D000E0F7FF1F00100240701B002000200240CA
:1002E0000410014000127A00001BB70094000020A7
:1002F00000093D00526812F4003F7A6818BF5208A6
:10030000514319606268DFF8DCB2C2F303123A4469
:10031000117A1A6820AECA401A60A74B4FF0000944
:10032000CBF80C30A369A54843F00103A361636ACD
:10033000DFF8B4A243F080736362A36943F01C0347
:10034000A3614FF6FF7326F82C3D314603928DF8DA
:10035000569008F0EFF99A4B31461846049308F08E
:10036000E9F99848314608F0E5F99749049B48684F
:1003700040F0007048609AE8030086E80300A16935
:10038000159841F00801A161082119610AF1080AD4
:1003900016A908F0CFF99AE80300A36986E80300DC
:1003A00043F00803A36116A9159808F0C3F9304675
:1003B00004F08CFD159B8549039AB3FBF1F3AB6008
:1003C0004FF47A73B2FBF3F2814B013A5A60F02298
:1003D0008BF823200722C3F808901A6007F03CF836
:1003E00006F07CF9642004F0D6FFB8F8E600794BFB
:1003F00048B9B3F9E82042B9B3F9EA30B3EB0901DF
:100400004B424B4102E04B4600E0034613F0010330
:1004100040F08D803B7600B209F020F964A3D3E967
:10042000002309F081F909F091FBDFF8A881074664
:10043000B8F9E80009F012F95DA3D3E9002309F047
:1004400073F909F083FB0646B8F9EA0009F006F9EA
:1004500057A3D3E9002309F067F909F077FB834636
:1004600038460CF0F7FD804638460CF067FE8146B2
:1004700030460CF0EFFD074630460CF05FFE0646B6
:1004800058460CF0E7FD824658460CF057FE4146B0
:100490008346504609F0B8FC41460590584609F09D
:1004A000B3FC51460790484609F0AEFC5946089007
:1004B000484609F0A9FC39460990504609F0A4FCC9
:1004C0005946E86007F1004009F09EFC314628617A
:1004D0006E61089809F098FC0146079809F08CFBBA
:1004E0003146A861099809F08FFC0146059809F08A
:1004F00081FB3946E86109F1004009F085FC31468D
:100500002862059809F080FC0146099809F072FB01
:1005100031466862079809F077FC0146089809F0AF
:100520006BFB4146A862384609F06EFCE8622A4F30
:100530002A4A3B68002143F002033B60B2F85A307C
:10054000244E0593264B2986197095F83210B6F87B
:10055000EE9096F8ED8009B903F0DCFCB9F1140FC8
:100560001CD009D8B9F1050F1ED0B9F10A0F18D067
:10057000B9F1000F0FD117E0B9F1BC0F36D0B9F5C2
:10058000807F05D0B9F1620F05D14FF002092FE04D
:100590004FF000092CE04FF0030929E04FF0040967
:1005A00026E04FF0050923E04FF0070920E000BFE7
:1005B000399D52A246DF913F0005FA05000801402F
:1005C000000C0140001001400000014040420F00BB
:1005D00010E000E0701B00201403002070200020B9
:1005E0003203002000ED00E028E900084FF0010987
:1005F000AD4BDFF820A31A884FF0100B22F0400219
:100600001204120C1A801A881A2022F038021204DE
:10061000120C42F030021A801A8892B242F0400264
:100620001A80CAF814B003F055FC484603F052FC97
:100630000120CAF810B004F0A3FE15A802F0C2FC15
:100640009DF95630013303D19DF95430013302D066
:100650002B8E9BB223B1002303202B8604F0E2FEF5
:10066000DFF8B4A2914B6420CAF80030904B4FF0F1
:100670000109CAF804308F4BCAF80C3004F08BFE25
:100680008D4B0022B8F1060F1A70DFF890B20BD034
:10069000B8F1080F03D0B8F1000F17D104E03B68A0
:1006A00023F002033B6011E000232B8695F83230E3
:1006B0000BB903F02FFC814B814A64201A60814AF8
:1006C0005A6004F068FE06238BF800309BF8003077
:1006D00043B9B8F1000F01D09846D1E73B6823F049
:1006E00002033B6096F8E2300BB17748037096F84E
:1006F000E3300BB1704A137096F8E4300BB1734AD3
:1007000013703B689A0702D56C4B1B689847DAF860
:10071000003098473B681B071ED5059B4FF0640BC4
:100720001AB292FBFBF84046039209F019FB039AB8
:1007300003460BFB182000B2049309F011FB644937
:1007400009F062FB049B0146184609F055FA61491D
:1007500009F05AFB686301E000236B635E4B0822DB
:100760001A614FF00A0BDFF870811920D8F80C30AD
:100770000BF1FF3B83F00803C8F80C3004F00BFECC
:10078000192004F008FE1BF0FF0BECD10823C8F879
:100790001030524BDFF888811B6893F90C0008F089
:1007A0005DFF3DA3D3E9002308F0BEFF09F0CEF9B9
:1007B0000CF050FC8346B8F8000009F0D1FA594615
:1007C00009F022FB0CF07CFC454B1880B8F80000C7
:1007D00009F0C6FA0146434809F0CAFB424909F04C
:1007E000C7FBA863DAF80C0008F04AFF2AA3D3E994
:1007F000002308F099FF2AA3D3E9002308F094FF0F
:1008000009F0A4F9394B3A4A18607179394BEA6317
:10081000394A197002EBC101497C384D4FF4A0727E
:100820002960B168880648BF01234FF000013448B1
:1008300048BF2B600CF069F8324A536823F44063D8
:1008400043F0706343F400635360E36943F00703CC
:10085000E361A36943F4006343F00C03A3612A4CF2
:100860002A4B236001F080FB294BFF2115221846FB
:10087000D4F800800CF049F8002202703A68012197
:1008800012F0020F27464DD00223837041700323DC
:1008900049E000BFAFF30080399D52A246DF913F8F
:1008A000000000A0F7C6B03E00300140A57F000860
:1008B000C52F000890C1793D9A03002088030020CD
:1008C000957F0008512F000832030020B521002039
:1008D0008988883C00002041000C0140D40300209E
:1008E000F80300200AE81C4100401C46D003002009
:1008F000801B0020F204002028E9000814060020D4
:100900007C07002000000140F01A0020981C002005
:1009100079150020000801401C030020B4210020AC
:10092000000000200B46510702D50321C1540133BA
:1009300012F00A0F08D0C11804220524C2549A1CD0
:100940004C70062181540333B168BC4A11F0200F6A
:1009500002D00720D05401330C0605D50924D45405
:10096000581C0A24145402337279B448082A01D05E
:100970000E2A02D10B22C25401330C24C45448075E
:1009800003F1010203D5AD48102484549A1CAB48EE
:100990001224845496F84141531C002C0CBF0021B2
:1009A00001F0010111B11321C154931C1422C2544E
:1009B000A34A01331370A34B00221A609A46D8F859
:1009C00004200024002100910120032305F0DAFE19
:1009D00020B954B94FF496420124F3E7DAF8003015
:1009E000002BECD1974B1860E9E7022004F065FC7E
:1009F000954C3F680146C4F8800138B90091022047
:100A0000BA68032305F0BEFEC4F8800110A80021D7
:100A100012220BF07AFF73790E2B01D0082B02D132
:100A200001238DF84830B76817F4005718D1874A6A
:100A30000023B85C12F803E0D118864503D01033C8
:100A4000602BF7D1002103F0DFFB83681B78012BBB
:100A500004D01037602FEAD14FF000098DF8439091
:100A60002968B36800317A4818BF0121C3F38012A6
:100A70008DF8461090F826118DF84420C3F34032CB
:100A8000C1F38001B6F8E0008DF84020C3F3C03216
:100A90008DF842208DF84710C3F30042B6F8DE10FF
:100AA0008DF84520ADF84C0003F001024FF47A7048
:100AB000DD048DF84120ADF84A10ADF84E0004D5A4
:100AC000644BB3F8DA30ADF84E30B1F5FA7F614FD0
:100AD00084BF0023ADF84E30B7F818315E49ADF849
:100AE000503097F8203184F88431002384F8853120
:100AF0004B709DF84830002B14BF0223002302B135
:100B00000133564A4FF0000802EB8303D3F8283133
:100B1000C2460593059B4FF6FF7233F80860964274
:100B2000F3B20AD14E4894F8852106784D4B162E23
:100B30001A7040F04281002532E19DF843201AB13D
:100B40009A1E012A40F216819DF844201AB11A1FFC
:100B5000032A40F20F81444A9DF845104FEA0319D9
:100B600002EB090529B152F809104048814200F012
:100B700001819DF8421011B1012B00F0FB80360A73
:100B8000022E05D19DF84010002908BF002603E081
:100B9000012E08BF9DF841609DF8461039B19DF8BF
:100BA000481021B9A3F10801012998BF04269DF836
:100BB000471031B19DF8481019B9043B032B40F29E
:100BC000C280012E58D1FF23E97B84F8CC3184F810
:100BD000CD31AB684FF0000B686884F8D0B1C4F831
:100BE000DC51ADF854308DF85610022315A98DF85C
:100BF000573084F888B1C4F88CB1C4F890B1C4F807
:100C000094B1C4F8C8B184F8CEB184F8CFB10392DE
:100C100007F090FD039A297B52F809005A4606F026
:100C2000B6FB284632464FF6FF7102F0D9FF284640
:100C300059460F4A0F4B00F0F7FF9BE07915002053
:100C40008E150020E81A00203C070020F0E900087B
:100C500070200020701B0020C108002028E9000837
:100C6000F2040020D005002050FD000800040040E0
:100C7000777E0008517F0008022E33D15FFA8AFB8D
:100C8000DFF80CE34FEA0B100EEB0001012381F8B3
:100C900001B00EF80030CD60A96895F80FE06868E3
:100CA000ADF8541015A98DF856E0049303928DF811
:100CB000576007F03FFD039A297B52F80900002294
:100CC00006F065FB049B28461A464FF6FF7102F0BA
:100CD00087FF28465946964A002300F0A5FF0AF1EF
:100CE000010A47E0032E2CD1BDF84A3094F8866102
:100CF000B3F5FA7F0FD98F4A2846B2FBF3F20821E9
:100D0000BDF84E3092B203F0F6FC04EB8606C6F84E
:100D10005002894B0EE0894A2846B2FBF3F20121CA
:100D2000BDF84E3092B203F0E6FC04EB8606844B2D
:100D3000C6F85002836094F88631013384F8863116
:100D400018E0042E16D1BDF84C307C4A284692FBA0
:100D5000F3F20121BDF8503092B294F8856103F0AE
:100D6000CAFC94F8853104EB86060133C6F880028C
:100D700084F8853108F10208B8F1180F7FF4CAAE83
:100D8000D0E6704B05EB030E98E80F008EE80F00DD
:100D90006D4B10351A78C02D02F101021A7008D07F
:100DA000E36B0021585903EB050809F0C1F900284D
:100DB000E7D0BB68D8041FD419E0644A02EBC6032D
:100DC00093F810C0604AD3F8148082F800C0B8F1DC
:100DD000000FEED000256545EBDA5A4A2B0103EBF4
:100DE000020E43440FCB01358EE80F00F3E7082EC7
:100DF000DFF8A08128D129E0534B93F80090B9F196
:100E0000010FF4D9524D4FF00008C84505F1100507
:100E1000EDDA55F8100C4FF07C5108F0F5FF4FF06B
:100E20007C5145F8100C55F8140C08F0EDFF4FF00C
:100E30007C5145F8140C55F80C0C08F0E5FF08F14E
:100E4000010845F80C0CE0E70E2E01D1012300E06B
:100E5000002388F80F3003F021F83E4A3E483F490E
:100E60003F4B02603F48C4F8A43201600023B7F84A
:100E70001801C4F8A012A4F8AA3284F8AC32C4F85D
:100E8000B022394958520233242BFAD1374B1A6019
:100E9000BB68190740F19B80354B93F81631032B43
:100EA00000F28F80DFE803F002022978012B4FF077
:100EB0000301304A08D184F8B412072184F8B6320D
:100EC00084F8B5120C2308E0022384F8B43200231E
:100ED00084F8B63284F8B512072313700023009308
:100EE0000820012324494FF4E13205F04BFC234B49
:100EF000C4F8B802C4F8BC325FE001230093204973
:100F0000052308201F4A05F03DFCB7F81811C4F866
:100F1000C002A1F57771490000231B4A99500433A0
:100F2000302BFAD1194B0C22C4F8BC3243E000BF7D
:100F3000C973000800127A00717F000840420F0058
:100F4000617F0008F80400205420002028E90008F0
:100F500000050020E0090020DC1A00207E1C002093
:100F600060EA000814020020D2050020D002002010
:100F7000701B00209415002051540008DD7C0008EF
:100F80000D550008A086010034020020897D00086C
:100F90000C09002001030020002300934FF4E132EC
:100FA00001230820394905F0EDFB394BC4F8C40290
:100FB000C4F8BC321022374B1A70003018BF012021
:100FC00028B9082007F090FA0023C4F8BC32BB68A7
:100FD0005A0405D52F4A082111702F4AC4F8BC22A3
:100FE00042F201021A4003F0010103F4005052B131
:100FF0002A4AC4F8BC2210B1264A0820107011B148
:10100000244A0C2111701E065FD5254BD7F83411E8
:10101000244DC4F8C8320023234A02EB0310406871
:101020009246884204D00133DBB2042BF4D900236A
:10103000DFF88C906B701D4B1D4AC9F800301D4BBA
:1010400000201A6000F0F6FC1B4B00261B686E6047
:10105000AB60D9F800301B78B3420CBF4FF00109E8
:101060004FF0030900F00AFF6A784B460AEB0212C0
:10107000009610203146526805F084FB0F4B186033
:1010800000BB802007F030FA1FE000BF9954000831
:10109000797D000894150020754C0008814C0008EB
:1010A000981C0020E00200202CE70008951C00207E
:1010B00098210020E00400206C1B0020DC020020AE
:1010C000FC020020012000F0B5FCBB68DD0340F10C
:1010D000F1808C498B6943F008038B618A4B1A6855
:1010E00000230120984000F01005854208D19800A7
:1010F0000F25854022EA05020B2505FA00F0024380
:101100000133082BEDD1804B804D1A60CB694FF035
:10111000010943F00203CB617D4B00261A687D4B29
:10112000DFF82CA2B2FBF3F22B88013A23F45C73B4
:101130001B041B0C2B8092B21D23AB852A85A5F8BE
:1011400014902B8C4FF0100B23F001031B041B0C8D
:101150002B842B8CA8882A8B23F0020322F07302A5
:1011600012041B04120C1B0C42F0600280B243EA12
:101170000903A8802A83AE862B842B8B504623F04C
:1011800008031B041B0C43F008032B83B5F8443001
:101190006FEA43436FEA53439BB2A5F844304B696F
:1011A00043EA09034B6103F012FF5B4B5046159372
:1011B0005A4B15A9169340F2CA23189380231A9309
:1011C0004FF480731B934FF400531E93CDF85CB023
:1011D00019961C961D961F9603F0DBFEAB890FA88F
:1011E0009BB243F40073AB81DAF8003043F00203A2
:1011F000CAF8003002238DF83CB08DF83D908DF890
:101200003E308DF83F9003F059FF454B454A188812
:10121000B118B05298780336542E887091461D4606
:10122000F3D103F0F3F90023298809EB030229F82D
:101230000310A9780333542B9170F5D103F0E6F92C
:101240000022114613463848085C043105099542CE
:1012500000F00F00A8BF6A1C9842A8BF431C702969
:10126000F1D184F89625314A314913705A08013A70
:10127000D2B222F0010008702E49D0070A7005D5BD
:101280000132013B9A42B8BF13460B702A4B2B4ADE
:1012900093F896154B08013BDBB223F0010013F0E5
:1012A000010F1070264A04D0013301398B42A8BFC8
:1012B0000B461370BB685A0573D5042002F011FB6E
:1012C0000146042002F0A0FF18B14368187A00F02C
:1012D0000100BE681B4B16F48066187009D004200C
:1012E00002F0FFFA0146042002F08EFF061C18BF30
:1012F0000126154B1E70154B1B681A7852BBC4F89B
:1013000098354BE000100240000C01400004004002
:101310009400002000366E0134040040080A0020CA
:101320001EE90008D00600205AE800083107002016
:101330002C0700202E0700203C0700202F0700204C
:101340002D07002019060020180600201C0600208A
:101350006C000240012A21D12F4D002128462C2269
:10136000C4F89C350BF0D1FA8E236B704FF07C0AD9
:10137000E0234FF07D09EB7085F800A085F82B90F5
:10138000264D002128462C220BF0BFFA8A236B70D1
:10139000A02385F800A0EB7085F82B900EB105F026
:1013A0005BFA03F0D3FF1E4B18607B79052B03D14A
:1013B0001C4B4FF4C8721A801B4B4FF47A721A8080
:1013C000012388F80D30002388F80130BB689B07A3
:1013D0001ED5164B164A1D461A6000F063FB2820E6
:1013E00003F0D9FF069A013A0692F6D12968114B0B
:1013F00048781E7802460123964203D30133082B16
:101400000244F9D10C4A13708A785343A4F8A035EA
:1014100021B0BDE8F08F00BF440600207006002018
:10142000440400209C030020B0210020C81A0020A2
:10143000741C00202C06002090000020AFF30080D8
:10144000234B70B519684FF47A73B1FBF3F1214B5C
:1014500021481A78214B224D1B7805F0F5FA214BD3
:1014600021481968214B2E68B1FBF3F105F0ECFA25
:1014700000241F4BE2B253F8221049B1012303FAB2
:1014800002F2324202D01B4805F0DEFA0134F0E7E6
:101490002A6892070DD5184A1848127803EB820380
:1014A000196A05F0D1FA164B197A11B1154805F0F1
:1014B000CBFA154804F012F9BDE87040134B1448FC
:1014C0001A88144B92B2198840F2E44305F0BCBA72
:1014D0006C1B00202C06002019FE00089000002044
:1014E000140300209400002057FE000840420F0023
:1014F00060EF000875FE0008B421002079FE0008A6
:101500008803002083FE0008BAFF0008921500201F
:1015100087FE00084004002010B5074804F0DEF8FC
:101520000024064B0648E218E15852680C3405F0D6
:101530008BFACC2CF5D110BDB9FE000844F100089F
:10154000CFFE000870B5064600240A4BE5182A793C
:1015500016420AD0E158084805F076FA28460021DC
:1015600005F004FD054804F0B9F81434B4F5256F0E
:10157000EBD170BD20F20008D7FE0008BAFF0008CA
:101580002DE9F04F694985B004460BF0C7F9684969
:10159000002820460CBF012603260BF0BFF90028C7
:1015A00008BF0226F20740F1AC806248624F05F0A6
:1015B0004BFA624805F048FA7A79614B614803EBCF
:1015C0008203596C05F040FA3869002108F0B0FD3B
:1015D00000285CD13C460546D4F8108000214046E6
:1015E00008F0A6FD00284ED1013557482946D4F809
:1015F00014B0D4F818A0D4F81C9005F025FA404691
:10160000002108F09FFD10B1504805F01DFA694611
:10161000404605F041FC01464D4805F015FA584694
:10162000002108F08FFD10B1484805F00DFA694619
:10163000584605F031FC0146454805F005FA50468C
:10164000002108F07FFD10B1404805F0FDF9694622
:10165000504605F021FC01463D4805F0F5F94846A5
:10166000002108F06FFD10B1384805F0EDF969462A
:10167000484605F011FC0146364805F0E5F90C2D09
:1016800004F11004A8D13448691C05F0DDF9334891
:1016900005F0DAF9324CD7F8088054F8041F19B174
:1016A000304805F0D1F9F8E70C462F4B53F8245099
:1016B00055B10123A34013EA080F03D02B48294654
:1016C00005F0C2F90134F0E7294805F0BDF92946D3
:1016D0007B1893F80E3104AA1344264A8A5C013120
:1016E000082903F8102CF3D10023234869468DF80C
:1016F000083005F0A9F9214805F0A6F94020FFF7C8
:1017000021FFB3070ED51E4805F09EF91D4805F0D0
:101710009BF91D4805F090FB184805F095F98020CD
:10172000FFF710FF05B0BDE8F08F00BFE1FE000835
:10173000E8FE0008F0FE0008701B002002FF000811
:1017400060EF00080EFF000819FF000817020108EB
:1017500080FE0008D2FE000821FF000833FF0008C9
:1017600000F0000843FF000804F0000851FF0008E3
:101770005EFF0008BD0101086AFF0008BAFF00080B
:1017800073FF000886FF0008480201082DE9F041B8
:10179000002407462546104B3946E65804EB03085B
:1017A00030460BF02FF958B10C48314605F04CF992
:1017B0004046002105F0DAFB094805F045F90135FE
:1017C0001434B4F5256FE6D125B90648BDE8F041DB
:1017D00003F084BFBDE8F08120F20008DBFE0008C2
:1017E000BAFF000890FF00082DE9F74F05460BF0FF
:1017F000CDF8064620B1012818D12B782A2B15D117
:101800004C4803F06BFF00244B4B4C48E518E15863
:1018100005F01AF92846314605F0A8FB143448486B
:1018200003F05CFFB4F5256FEED17FE028463D2143
:101830000BF09FF8002874D0034613F8012C202ADF
:1018400001D1013BF9E7441C2046C5EB030A0BF02C
:10185000F2F88346204606F029FD002706461423A9
:101860007B43DFF8D49053F8098003EB090440462A
:101870000BF08CF803461A462846414601930BF0BC
:101880008DF8019B002843D15FFA8AF29A423FD13A
:10189000E06808F065FA0146304608F067FC002869
:1018A00034D0206908F05CFA0146304608F054FC58
:1018B00060B32379142404FB07949B06237958BF53
:1018C0005E4603F03F03042B32460CD005D8013BA3
:1018D000012B10D8A3681E700DE0102B06D0202B12
:1018E00007D0082B07D1A3681A8004E0A3681E6004
:1018F00001E0A3681E604146124805F0A5F82046A5
:10190000002103B0BDE8F04F05F030BB0E4803E006
:101910000137842FA3D10D4803B0BDE8F04F03F089
:10192000DDBE284603B0BDE8F04F2FE703B0BDE8A9
:10193000F08F00BFA8FF000820F20008DBFE0008BF
:10194000BAFF0008BDFF0008C8FF000890FF0008AC
:1019500030B51049104A0C78104B84B11C681568DA
:101960000444A54214D3126800201A600C4A08707F
:10197000117809B10139117001221A7130BD18684E
:101980001468C830844203D31268012008701A60BA
:1019900030BD00BFE21A00206C1B0020E00C0020CC
:1019A000CA03002037B51E4D8DF807306B798DF8CE
:1019B000062002AA8DF804008DF805101A4412F8CA
:1019C000042C443AD2B20F2A0BD81649022B01EB51
:1019D0004202B2F8EC4008D894B12046FFF7B8FFB5
:1019E0000EE0022B4FF0C804F7D90F4B1A682B6892
:1019F000121B934204D20A4A002353710B4A1370FC
:101A00002B79012B00D04CB96B79022B02D8044AF8
:101A100001335371064A00232B71137003B030BD9C
:101A2000E00C002060EF00086C1B0020CA030020BF
:101A3000E21A00200449054B0968002218701A6157
:101A400059611A76704700BF6C1B0020E00200202D
:101A50004B8830B5DC070CD50F4C0D78247805F099
:101A60000F05A54205DA0D4B00EB4000191814884C
:101A70000EE05B070FD50A4B09781B7801F00F01C8
:101A8000994208DB054B00EB400032F8064F19186D
:101A90001C5293788B7030BD2C070020D00600209C
:101AA0002E07002010B5174B17489A794078511C23
:101AB0009971164902F0070231F8101003EB420346
:101AC000198100231846124A9A5A02331044102BE7
:101AD00080B2F8D1C00808F043F90E4908F094F933
:101AE0000D4908F045FA0D4B04461B68187808F0BC
:101AF00037F90146204608F087F908F071FB084BDA
:101B0000187010BDE00C00203C1B0020C01A002003
:101B1000E80C00203333534000F07F45C81A002002
:101B20002C060020F8B50121044605F025FC01280B
:101B30003B4F01D0002616E04FF6FE732382A68DA0
:101B40000025B6B22046795D06F08EFD354B142295
:101B500002FB0030C36813B1007C31469847023560
:101B6000082DEFD1E6E7BD5D95B92046022105F0CD
:101B700003FC012850D14FF6FD73238229462046ED
:101B800006F072FD274B142202FB0030A18E3EE0CE
:101B9000042D12D12046294605F0EEFB01283BD149
:101BA0004FF6FB7323822946204606F05DFD1D4B50
:101BB000142202FB0030218F29E0082D12D120468B
:101BC000294605F0D9FB012826D14FF6F773238269
:101BD0002946204606F048FD124B142202FB003035
:101BE000A18F14E00C2D17D12046102105F0C4FB65
:101BF000012811D14FF6EF7323822946204606F0C3
:101C000033FD084B142202FB0030B4F84010836807
:101C100089B20BB1007C98470236082EA3D1F8BDDB
:101C20006CF000087C0700202DE9F041067B04469B
:101C30000F460068314690461D4606F015FD0F28F8
:101C400008D8194B142202FB0030C0F80880C56088
:101C500006710774237B22680C2B1CD8DFE803F085
:101C6000071B1B1B0C1B1B1B111B1B1B160093892B
:101C70009BB243F002030DE093899BB243F004034F
:101C800008E093899BB243F0080303E093899BB279
:101C900043F01003938125B193899BB243F0010374
:101CA0009381BDE8F08100BF7C07002030B50B4A6E
:101CB00000EB4000155C322465436421131895FB4A
:101CC000F1F515545A78624392FBF1F25A709A7802
:101CD000544394FBF1F1997030BD00BFD006002051
:101CE000254B10B55343254A254C12680139B2FBE8
:101CF000F3F20388013AA04289B292B29BB212D0A9
:101D000004F50064A0420ED0B0F1804F0BD0A4F5D2
:101D10009834A04207D004F58064A04203D004F5B3
:101D20008064A04202D123F070039BB2154CA04204
:101D300006D004F58064A0421CBF23F440739BB21C
:101D400003800F4B8185984202850FD003F5006315
:101D500098420BD003F54063984207D003F58063A7
:101D6000984203D003F58063984201D10023038693
:101D70000123838210BD00BF40420F009400002069
:101D8000002C01400010004030B5002213460D49E0
:101D90005C5C9CB12E2C04D1013378B11C18002559
:101DA0000D550A246243C95CA1F13004092C9CBF83
:101DB000303A52180E2B03D80133E8E7104630BDF5
:101DC000002030BDFB0C0020284BF0B51D68002220
:101DD0002748165C1418AB19597801F0040101F07A
:101DE000FF0371B10132102AF2D10020F0BD1BB106
:101DF00003EB83035B00DBB210F8012B303A134492
:101E0000DBB2221A022AF2DC002184420AD919B17B
:101E100001EB81014900C9B210F8012B303A11449D
:101E2000C9B2F2E72E2E14D1601C002204240678D9
:101E300002EB8202AF197F7852007F0792B203D57E
:101E4000303A3244013092B2013C14F0FF04EED13A
:101E500000E00022074806244143642000FB0212F0
:101E60000548B2FBF4F200FB0320F0BDA001002006
:101E7000FB0C002040420F008096980070B5204C6B
:101E8000204D207A07F068FF1F4908F071F828609C
:101E9000A07C07F061FF1C4908F06AF81B4E6860DF
:101EA000EE60607A07F058FF194908F061F8194DA3
:101EB0002860E07C07F050FF134908F059F868608B
:101EC000607F07F049FF144908F052F8EE60A860FF
:101ED000A07A07F041FF0E4908F04AF80F4D28603C
:101EE000207D07F039FF084908F042F86860A07FBC
:101EF00007F032FF084908F03BF8EE60A86070BDBB
:101F000070200020780E00200000C8420000FA4433
:101F100000002041880E002000007A44AC0E002012
:101F200010B5272003F0E4F90E4C84F828011020A6
:101F300003F0DEF984F82901002003F0D9F94FF409
:101F4000E133C4F82C31C4F83031C4F83431C4F86A
:101F50003831522384F82A0184F82B0184F83C316B
:101F600010BD00BF701B0020F8B5002003F0DCF9A5
:101F7000124E134D0C27134C07FB006095F82831C7
:101F8000E35C0372012003F0CFF995F8293107FBD8
:101F90000060E35C0372022003F0C6F995F82A3171
:101FA00007FB0060E35C0372032003F0BDF995F8C2
:101FB0002B3107FB0060E35C0372F8BD30000020AA
:101FC000701B002010FE0008104B1B681A784A2A6C
:101FD0001AD1598840F2E442914215D11A79BE2AA9
:101FE00012D193F8E124EF2A0ED11A46002003F211
:101FF000E4418A4203D212F8011B4840F7E7D0F1CE
:10200000010038BF002070470020704714000020F6
:1020100070B50546441E14F8011F61B1064E3046E6
:102020000AF0A7FC0028F6D0861B0448631B304446
:1020300080F80E31EFE770BDBD010108701B002074
:102040007FB504460AF0A2FC082824D100231F49CA
:10205000E25C09681144497801F00301022908BFD4
:10206000203AE2540133082BF1D10025665D18486F
:1020700031460AF07EFC28B10135601931460AF07C
:1020800078FC18B1134803F029FB1CE0082DEDD1B2
:102090002046FFF7BDFF104803F020FB00230F4A46
:1020A00004A91A4492F80E210A440949595C0133E3
:1020B000082B02F80C1CF2D10023094801A98DF865
:1020C0000C3004F0C1FC04B070BD00BFA0010020C2
:1020D000BD010108E8FF000808000108701B00208E
:1020E000D2FE00080000000008B5054803F0F6FA2B
:1020F00001F0A4F901F0D0F8BDE8084001F0B1B852
:10210000C60101089B4B2DE9F04F1B6891B01B786D
:10211000C4B223B1012B00F0E48000F0D4BD242C24
:10212000954D0CD006D80A2C00F08B800D2C00F0B9
:102130008880C2E02A2C06D02C2C04D0BDE02B7065
:102140006B70AB70CAE06A782E782A4400218A4B03
:10215000D170EEB9DA789E74472A19D11A79502ACB
:1021600016D15A79472A07D19A79472A04D1DA79C0
:10217000412A01D101229A746A797F4B522A07D1F0
:102180009A794D2A04D1DA79432A04BF02229A743B
:10219000AB7C794F012B02D0022B33D046E0B31E2B
:1021A000072B43D8DFE803F0040810141C2442294D
:1021B000FFF70AFE686139E0EA786F4B532A35D1A0
:1021C0005A6952425A6131E0FFF7FEFDA8612DE0E5
:1021D000EA78694B572A29D19A6952429A6125E0D7
:1021E000EA78664B302A94BF00220122DA721DE0A1
:1021F0000020FFF7C9FD287718E00020FFF7C4FD95
:10220000E88313E0072E06D0082E0FD10120FFF738
:10221000BBFD78840AE00120FFF7B6FD41F21843C8
:1022200058434FF47A72B0FBF2F33B84013600233B
:102230002A2C514A2E706B704BD1012182F8241048
:102240004CE095F82430002B33D04B4BDB78402BFF
:1022500004D9A3F137021201D2B202E01B0103F04C
:10226000F0022B79A978402B8CBF373B303BDBB297
:102270001344DBB29942404A1AD1937C012B08D017
:10228000022B15D1118C3E4B528C19803D4B1A807C
:102290000EE03A49C97A61B13B49506908609069DA
:1022A0004860107F39490870D18B394A118000E0AD
:1022B0000023002285F8242010E06B782E4A0E2B94
:1022C00003D8591C13445170DC7095F824302A4A05
:1022D0001BB991784C40947000E0002303F0010397
:1022E0004BE1254B002193F82520082A00F2448178
:1022F000DFE802F00B05141E2F506E8A9700622C47
:1023000001D1022207E083F82510B52C40F034817A
:1023100093F82520013283F825202DE1032283F84C
:10232000252083F8264083F8274083F8284023E1BE
:10233000042283F8252093F8272093F828102244BC
:10234000D2B283F827200A4483F8282083F8294052
:1023500012E1052283F8252093F8272093F828100E
:102360002244D2B283F827200A4483F828205C85CF
:1023700002E100BFFC020020F80C00200103002055
:102380009C0600209615002038060020000300203F
:10239000A0060020062183F8251093F8271093F853
:1023A00028002144C9B283F82710014483F828107B
:1023B000598D644A01EB0424A4B2B4F5007F89BFAF
:1023C00000215485518582F8251000229A85D3E09A
:1023D00093F8272093F828102244D2B283F82720BC
:1023E0000A4483F828209A8DC72A03D855491144F6
:1023F00081F83040013292B29A855B8D934240F071
:10240000BB8007224F4B86E7082283F8252093F8EC
:102410002730A34200F0B0804A4A002382F82530DA
:10242000ABE083F8251093F82810464AA14240F00B
:10243000A38092F8291006293CD004D8022912D092
:10244000032924D098E012294AD0302940F0948002
:1024500092F834103C4A102988BF1021117010786E
:102460003A4900224AE03A49506B4860906B086054
:10247000116C4FF47A7091FBF0F1364801803649C7
:1024800092F8F800C872012182F8F9104BE092F836
:10249000351011F0010105D092F83420D01E4242CF
:1024A000424100E00A4683F8F820002A3BD12A493D
:1024B000CA7238E092F83B1011F0010105D092F891
:1024C0003A20D11E4A424A4100E00A4683F8F820E9
:1024D0000AB92149CA7293F85F10204A117022E0AC
:1024E000516C1F480180916C42F2107091FBF0F129
:1024F0001C480180012182F8FA1014E0824201F1A7
:102500000C0110DA11F8045C174C155511F8035C36
:10251000164C155511F8015C154C15550D78154CD8
:1025200015550132EAE793F8F930064A23B392F8D9
:10253000FA300BB3002382F8F93082F8FA30012325
:102540001BE000BFF80C0020B1150020280D002072
:1025500038060020A0060020010300200003002010
:102560009C06002096150020B2150020C215002000
:10257000D2150020E21500200023002B00F0A383D9
:102580009D4B9A68DA609D4A1168904699609C4B11
:10259000196841F0200119609A4B197801290CBF84
:1025A000002201221A70984BDA7A002A00F08B83FD
:1025B000964A1278042A40F286839A7802B91A73EE
:1025C0001B7B934C934D73B96AB1934B6A6828682F
:1025D0005A60186006F018F8904B01221B88A4F886
:1025E000FC30894B1A7394F8FE304FF00509013323
:1025F00093FBF9F909EB8909C9EB0309884B894F6A
:102600001B7884F8FE900593BB1D03EB890907979F
:1026100000238048844A1E58844F9E5096FBF7FE44
:1026200002F1080743F807E0814F191807FB0E670E
:1026300042F2107697FBF6F606910799B6B221F8AA
:10264000026F02F1100A03EB830B0496079153F813
:102650000A6059F80B1049F80B70C1EB060C0CEB33
:102660000706724F4FF0050C43F80A6096FBFCF624
:1026700007FB0E660599183201299E50074606D1C0
:102680000498821EB2F5797F9CBF06990E600433D0
:10269000082BBED15E4ED8F80000D6F84C31C01AD7
:1026A00007F05AFB634907F063FCD8F800304FF09D
:1026B0007E51C6F84C31814607F044FD10B94FF009
:1026C0007E5000E048460CAAC6F85001524B0092DA
:1026D0000DAA019297E803000CCB05F053FF0C9A6A
:1026E00064230D985449B2FBF3F20A8090FBF3F394
:1026F000524A45481380037B82460BB90B801380F6
:1027000096F85431DFF80881002B3AD0D8F85011F0
:102710004FF07E5007F02CFCD8F8583181462868DD
:10272000C01A07F01DFB494607F06EFB07F032FDAB
:10273000D8F85C211FFA80FB68680FFA8BFB801ABF
:1027400007F00EFB3E4B196807F05EFB494607F0A9
:102750005BFB07F01FFDB8F9623100B2C218B8F98F
:10276000603102215B4492FBF1F293FBF1F392B2F0
:102770009BB2A8F86621A8F86431A8F86221A8F8ED
:102780006031012386F85431796838689AF8083046
:10279000C6F85C11C6F8580123B91B4BDB79002B36
:1027A00000F091821A4D05F5B873009305F5BA73E0
:1027B0000193D4F86821D4F86C3105F0E3FE7B680E
:1027C000D4F86C01C01A07F0CBFA1D4B196807F05A
:1027D0001BFB07F0DFFCD4F868313A68C4F87C01D1
:1027E0009B1AC4F878310E4B1B78012B2AD0022B90
:1027F00000F0F58067E200BFE00200206C1B0020C3
:10280000140300207815002001030020000300209D
:10281000F80C0020380600209C150020140400202D
:10282000B0150020F60D0020240E002080969800A0
:10283000806967FF00007A449E060020A2060020FF
:1028400060000020D5F89071D5F89C41D5F88061E2
:102850000597D5F8947104F100400496079707F0A6
:1028600099FC8046204607F095FC914BD5F85061C5
:102870001B68D5F898518F4C069508900993002550
:10288000DFF850A25AF81570AAF11403384635F84B
:10289000039007F065FA049907F0B6FA07F07AFC9E
:1028A000C9EB000080B20AF1280A25F80A000FFAE5
:1028B00080FA504607F054FA059907F0A5FA07F098
:1028C00069FC1FFA80FB0AEB070007F049FA079939
:1028D00007F09AFA314607F097FA216807F08CF969
:1028E00007F058FC404504DB08998842A8BF084619
:1028F00000E0404607F034FA206007F04BFC5844F3
:102900001FFA80FB606809F13109381A07F028FACC
:10291000314607F02DFB099A206184469078D4F85F
:1029200008A0CDF80CC007F017FA06F0A9FE5EA3C8
:10293000D3E9002306F0F8FE02460B4600205E496C
:1029400007F01CF807F002F9314607F055F9014687
:10295000304607F00DFBDDF80CC0034651466046DB
:10296000039307F047F9039B0146184607F04CFA1A
:102970000146504607F040F91FFA89F9B9F1620F94
:10298000014620616760A0600ED9069807F03CFA06
:1029900007F000FC494BB0F5FA6FA8BF4FF4FA609E
:1029A0009842B8BF184600E00020834440F6B83390
:1029B0000FFA8BFB9B45A8BF9B46414B0A229B45C8
:1029C000B8BF9B466A433F4B54F8141B25F803B02D
:1029D0003D4B0235042DD15000F0758150E7344B4A
:1029E000D5F870B11F68B5F8A481B7F808904FEA20
:1029F0005B03994528BF99460FFA88F3994502DC95
:102A00001FFA89F90BE03149D5F8500107F0FCF9BC
:102A100007F0C0FB40441FFA80F9A5F8A491D6F84E
:102A2000A831D6F87451C3EB0508404605F00AFEFC
:102A30000028D8BF404241F293139842CCBF0020F7
:102A40000120002848D0404607F08AF9204907F0C5
:102A5000DBF90AF073FB8046584607F07DF9014622
:102A6000404607F0D1F907F095FB80B240F6B83246
:102A700003B29342A8BF1346114AA6F8AC01934291
:102A8000ACBFEB18AB1848F6A042934203DDA3F5A8
:102A90000C43A03B04E0002BBCBF03F50C43A03368
:102AA000C6F8B0311AE000BF182D4454FB2119407C
:102AB000E0040020381900200000F03F30F8FFFF4C
:102AC00048F4FFFFE8040020601900200000C8421D
:102AD000D3023739700E0020C6F8B051D4F8B06177
:102AE000C6F50C502830049607F03AF97A4907F0F9
:102AF0008BF905460AF0AEFA0F9028460AF01EFB45
:102B0000D4F8B461D4F8C0510796D4F8B8610E90E7
:102B100005F100400A9607F03DFB0590284607F0B6
:102B200039FBD4F85081D4F8BC410B9009946B4C1C
:102B30000025484607F014F90EAB53F8151007F0BE
:102B400063F9DFF8BCA106463AF9050007F008F979
:102B50000146304607F04EF807F01CFB604B06B20A
:102B6000B6F57A7FA8BF4FF47A769E42B8BF1E466C
:102B7000B0B20AF13C0A25F80A0000B207F0F0F8FA
:102B80000799824607F040F907F004FB80B20890ED
:102B90000A99504607F038F9414607F035F921689F
:102BA00007F02AF807F0F6FA0599884204DB0B9A39
:102BB0009042A8BF104600E0059807F0D1F8824681
:102BC000206060681434301A07F0CAF8414607F0F4
:102BD000CFF954F80C3C44F8040C8446B8780693BA
:102BE000CDF80CC007F0B8F806F04AFD38A3D3E9D9
:102BF000002306F099FD02460B460020394906F0F5
:102C0000BDFE06F0A3FF414606F0F6FF0146404632
:102C100007F0AEF9DDF80CC0034606996046039351
:102C200006F0E8FF039B0146184607F0EDF8014661
:102C3000069806F0E1FF44F8106C014644F8040CD5
:102C400044F80C0C099807F0DFF807F0A3FA089E87
:102C50000644504607F09EFA304440F6B83300B2BE
:102C60009842A8BF1846204B0A229842B8BF18467F
:102C70006A431E4BE8521E4B0235042D42F803A056
:102C80007FF457AF3B792BB1049E6422194B96FB1E
:102C9000F2F21A803B88184C9B450DD9D4F8A83124
:102CA000D4F87401C01A05F0CDFC42F2107300286C
:102CB000B8BF4042984206DD104B01221A70B4F8AA
:102CC000FC200C4B1A8011B0BDE8F08FAFF30080F0
:102CD000182D4454FB211940D302373960190020C4
:102CE00018FCFFFF0000F03F48F4FFFFE80400205D
:102CF0003819002090150020F80C0020B015002095
:102D00005C0E00202DE9F047784B86B01A789A4681
:102D1000DFF8E89192B9D9F80040012320468AF8FB
:102D2000003002F0F3FA02234372714B7148C3F88A
:102D3000C44102F0D3FC704802F0D0FCD9F8000086
:102D400002F026FC002800F0CD806C4B684C18681F
:102D500002F019FC0928014601D03F2859D14FF053
:102D60000008D4F8C861664F45462EB165483968F9
:102D7000324609F013FE10B9B84605B93D46624B1C
:102D80000C379F42F1D305B3D5F800E0D8F800C066
:102D9000D4F8C83156481EF803701CF80310B94225
:102DA00013D15A1C59B92D2B09D8C0F8C821034496
:102DB0002027024483F8CC7182F8CC1105E023442B
:102DC00083F8CC71C4F8C821E2E7D4F8C8310BB15C
:102DD000454512D04D4802F081FC454509D855F8CB
:102DE0000C0B02F07BFCD9F80000092102F0E2FB99
:102DF000F3E7414802F072FC0026D4F8C8319E4245
:102E00009CD2404BD9F80000995D02F0D3FB01360B
:102E1000F3E7D4F8C83133B904283BD104F5E670A0
:102E200000F0F2FA5EE00C2801D1394881E70A2966
:102E300001D00D294BD1374802F050FCD4F8C831ED
:102E4000304EE218002382F8CC310493324B03A8B1
:102E500000932B4911220C23039609F0F0FD05463F
:102E600038B1006809F092FD0130AB6830449847F2
:102E700002E02A4802F032FC22480021302209F008
:102E800044FD0023C4F8C8319AF80030002B7FF4C9
:102E900052AF27E00C28C8D07F2903D14EE72F2B53
:102EA0003FF64CAFA1F12002D2B25E2A3FF646AF08
:102EB00013B920293FF442AF5A1CC4F8C821D9F8ED
:102EC00000001C4484F8CC1102F074FB36E77F2923
:102ED000E5D1013BC4F8C8310022234483F8CC215A
:102EE0000F4829E706B0BDE8F08700BFB3210020F6
:102EF000F80C0020DC01010814020108BC080020C5
:102F000044F10008C40E002010F200081902010864
:102F10001E020108BAFF00088D4C000829020108B2
:102F200045020108AFF30080037A0022D0B20132DB
:102F300013B1581E0340F9E70A7AD9B2013312B12E
:102F4000511E0A40F9E7884294BF002001207047D3
:102F50001A4B73B51A881A4D22F040021204120C53
:102F60001A801A88102622F038021204120C1A80D5
:102F70001A88044692B242F040021A80BB206E6169
:102F800000F0A8FF684601F03BF82E619DF8002094
:102F90009DF8013043EA022323809DF802209DF82A
:102FA000033043EA022363809DF804209DF8053036
:102FB00043EA0223A38002B070BD00BF003001408D
:102FC000000801401A4B73B51A881A4D22F04002CE
:102FD0001204120C1A801A88102622F038021204E9
:102FE000120C1A801A88044692B242F040021A80EB
:102FF000C3206E6100F06EFF684601F001F82E619B
:103000009DF800209DF8013043EA022323809DF8BB
:1030100002209DF8033043EA022363809DF80420D8
:103020009DF8053043EA0223A38002B070BD00BFC3
:1030300000300140000801401FB50123ADF8083001
:10304000ADF80410002301A9ADF80A30ADF80C303A
:10305000ADF8062001F027FE05B05DF804FB464BF5
:1030600010B54FF4127404FB003494F83C22C2B93A
:10307000A36A616A994229D0591CA069A162C05C07
:103080002369C0B299424FEA400343F40073A4F8A5
:103090003E324FF00A0384F83D3228BFA26201237A
:1030A00012E094F93D327BB1B4F83E1220464B0851
:1030B000A4F83E3201F0010105F005FB94F83D3221
:1030C000013B84F83D3201E084F83C3294F8383218
:1030D000002B4FD194F839320133DBB2092B84F83D
:1030E000393204D12046BDE8104005F0D7BA0A2B8A
:1030F00040D194F83B322BB9B4F8403243F001038D
:10310000A4F840326379D9071CD5B4F8400282058F
:1031100001D4C30705D4B4F844320133A4F84432CF
:1031200010E0E36AC0F347000BB198470AE0E36997
:103130006269D054E269E3680132B2FBF3F103FB48
:103140001123E361012284F8382294F83B22002302
:10315000012A84F839320DD1A27984F83B32236BED
:10316000012A1868197B14BF02220022BDE8104012
:10317000FFF762BF10BD00BFF40E00202A4B10B550
:103180004FF4127404FB00346379DB074AD594F8DA
:10319000383203B3236B00221868828494F83C22EF
:1031A00022B1B4F842220132A4F84222A279197B5A
:1031B000012A0CBF02220022FFF73EFF012384F800
:1031C0003B32002384F8393284F83A3284F83832BA
:1031D000A4F8403210BD94F83B322046012B04BFC6
:1031E00094F8393284F83A3205F058FA94F83B12E0
:1031F000236BA27949B9012184F83B128A421868ED
:10320000197B0CBF0222002208E0002184F83B1247
:10321000012A1868197B14BF02220022BDE8104061
:10322000FFF70ABF10BD00BFF40E0020426A10B5C0
:103230008469A154416A02690131B1FBF2F402FBD5
:1032400014124262426B32B11368DB0708D4BDE846
:10325000104001F037BA036DDA6842F08002DA609C
:1032600010BD10B5084802F039FA084B1C6820461A
:1032700002F07FF918B90A2002F08DF8F7E7044A46
:10328000044BDA6010BD00BF49020108BC080020F1
:103290000400FA0500ED00E04E4B4A222DE9F34709
:1032A0001A7040F2E4425A80BE221A71EF2283F86B
:1032B000E124002283F8E22411461E46B35C013269
:1032C000594040F2E4439A42F8D1424B424A83F8D3
:1032D000E214424B04275A6002F188325A600020FF
:1032E000013F17F0FF0765D03C4B3422DA60002421
:1032F000C4F30903DFF8E88063B100234FF4005002
:10330000D8F80090019356F8048001F031FE0428AB
:10331000E6D11FE04FF43020D8F8009001F028FEED
:103320000428DDD12D4D4FF430202B6943F00203EA
:103330002B6104EB09036B612B6943F040032B61A4
:1033400001F016FE2A6941F6FD73134004282B6133
:10335000D3D0C5E7214D4FF400502B6904EB090A87
:1033600043F001032B611FFA88F324F8093001F0C0
:10337000FFFD042813D10AF102030193019B4FEAD8
:103380001848A3F800804FF4005001F0F1FD2B69BC
:1033900041F6FE721A4004282A6106D0A0E72B6984
:1033A00041F6FE721A402A619AE7043440F2E4437F
:1033B0009C429DD1094B04281A6942F080021A618F
:1033C00002D1FEF701FE10B90A2002F02BF802B07C
:1033D000BDE8F087701B00202301674500200240F4
:1033E0001400002008B5064802F078F9054B93F860
:1033F000E00405F081F8FFF74FFFBDE8084030E733
:1034000055020108701B002010B50446074802F061
:1034100065F9074A00231370064A1360064A1370C1
:1034200000F03CFD2046BDE81040DBE75C020108EF
:10343000C40E0020C00E0020B32100202DE9F74F5C
:10344000A74AA84D10685168A74C6B4603C340F2C9
:10345000E4420021284609F058FA00214FF49A72FC
:10346000204609F052FA4A232B7003236B71022382
:10347000AB6040F24C424FF41673A5F8F030A5F85B
:103480001A21FA2340F26C72A5F8F230A5F81C213B
:103490002A231922A5F8EE3085F822214FF4FA7379
:1034A00040F27E42A5F8F630A5F8D020202340F265
:1034B0003A7285F8F430A5F8D2206E234FF47A7270
:1034C00085F80431A5F8D4202B2340F27E5285F8EC
:1034D0000531A5F8D620212340F2EA524FF0010829
:1034E0004FF0320985F8063140F2DC5B4FF4C873C7
:1034F000A5F8D82040F2B452A5F80831A5F8DA2092
:10350000A5F8DE3085F8EC80A5F818B185F824819F
:10351000A5F8DC90A5F8E090FEF702FD1E22A2734C
:10352000E2730B2240F6AC5322721422AB8162721A
:1035300017232275502223766376A27755236422BF
:10354000A37108212D23E277782268482374E1745F
:1035500063770E216273E375654A664B0026282760
:10356000A1724FF00A0A5A21E17260622363AE73BE
:10357000267027716771A67684F807906674E676E0
:10358000A674267784F815A0277384F82180E26357
:1035900022644FF08242E2624FF07C52A263564AAC
:1035A00063632367554B6264554AA062636755485D
:1035B000554BA26484F85010626641211522E064E4
:1035C00084F85110A3670421A4F85C60A4F85E603D
:1035D00084F86C204D4884F8546084F8556084F871
:1035E0005660A4F858B084F8529084F85360A4F858
:1035F0005A6084F8601084F8687084F8697084F800
:103600007C80FEF705FD4FF44873A4F8D830C8233A
:1036100084F81D314FF49663A4F81E3140F2D9337B
:10362000A4F8203140F64303A4F8223184F8D46092
:1036300084F8D56084F8D67084F8D78084F8DA608E
:1036400084F81CA123464FF47F72A4F8DC204FF4C9
:10365000FA62A4F8DE2040F2DC52A4F8E0201DF863
:103660000620013684F8E220082E4FF0FF0284F88D
:10367000E32004F10804E6D1012283F8242183F831
:10368000252183F82621C82183F82C216422A3F860
:103690002811A3F82E2114214FF4967283F82A11D1
:1036A000A3F830211E21282283F82B11A3F8322100
:1036B0000023EA1810330021C02B1161F9D1002436
:1036C000281900F5A27008494FF49A7204F59A740B
:1036D00009F012F9B4F5677FF2D103B0BDE8F08FBD
:1036E00074F00008701B00207020002000002040B3
:1036F0008FC2753D9A99193FCDCC4C3DF6287C3F41
:103700000000A040000040403D0A773F71020108E0
:10371000F7B50368174C184D23600B68174E6360AC
:10372000006804F071FF95E80300154B01960093C3
:1037300094E80C0004F026FF3668124B60681E60A7
:103740006B68114FC01A06F00BFB104B196806F09E
:103750005BFB06F01FFD22682B687860D31A3B6084
:103760000B4B1E600B4B1B68DA880B4B1A8003B0A7
:10377000F0BD00BF600E0020380600206C0E002057
:10378000680E0020A80E0020700E002060000020AF
:10379000A00E0020E00400209C0E00202DE9F7433D
:1037A0001F464FF4127343439146424A0646D418CB
:1037B00008B9414802E0012804D140482063103094
:1037C000C4F834013E480025D050032363714FF400
:1037D00080734FF00108E3602361D4F8343184F83A
:1037E0003C5284F8388284F8395284F8466258682A
:1037F00004F134029B68626104F59C72A261E1628B
:103800002562E561A5626562A4F84252A4F84452BB
:10381000ADF804300225102301A9C4F80890A7715F
:103820008DF806308DF8075004F084FF236B01A952
:1038300058689B688DF80750ADF8043048238DF820
:10384000063004F077FF4146204604F03CFF32206A
:1038500001F0A1FD1B4BD4F834811B681D46B5FB5C
:10386000F9F1B1F5803F03D3012DF8D96D08F6E7E2
:10387000154A4046B3FBF2F289B2D2B200F0B0F979
:10388000404631460023114AFEF7CEF9256B012F41
:1038900014BF022200222868297BFFF7CDFB2846AF
:1038A00031460B4A0023FEF7BFF9204603B0BDE8BE
:1038B000F08300BFF40E002090FD0008B0FD00086A
:1038C0007CF000089400002040420F005F300008A8
:1038D0007D31000803460A4690F84602D96A9B7972
:1038E0005CE770B500220646304910014318415C80
:1038F000B14204D00132062AF6D1002070BD2C4D11
:10390000042E05F592640FCB84E80F002B4619D0E6
:1039100007D8012E0CD0022E46D1264B1B689B687F
:103920000DE0102E39D0202E06D0082E3CD11AE002
:10393000204B1B685B6833E01E4B1B681B69C5F896
:1039400094342DE01C4A126812782AB1012A0CBF67
:103950004FF49642002201E04FF41652C3F894242B
:10396000C3F8982420E0154A1268127A032A1BD85B
:10397000DFE802F009090209114AC5F89424C5F8E4
:103980009824032206E04FF4E132C5F89424C5F8E8
:103990009824012283F89D2406E0064B1B68DB680F
:1039A000C5F89834204670BD064870BDF0E900089F
:1039B000F40E0020F01A00201C0600201402002043
:1039C000A0860100841300202DE9F04F89B00793F1
:1039D000714B814618880492039106F0BDF96F4936
:1039E00006F012FA029002994FF07E5006F0C0FAEB
:1039F000002406904E462546A046B8F1020F684BBB
:103A00000BD10399B3F904004A790A32504306F006
:103A1000A7F9644906F0ACFA34E0049A5F5F5342B8
:103A20009F4203DB13469F42B8BF3B465E4ADFF826
:103A3000A4A1AA5E9B1A079A505F184406F090F959
:103A40005A4906F095FA9AF80330834623B1D9F81B
:103A5000441006F0D9F915E0039B18791430784327
:103A600006F07EF94F4906F083FA9AF804300746CB
:103A70004BB1D9F84810584606F0C6F90146384609
:103A800006F0BAF807464A4BDFF84CB1585F06F02B
:103A900067F9484BD96806F0B7F98246514638466F
:103AA00006F0A8F8316A074606F0AEF902990590CB
:103AB000384606F0A9F9F16A06F0A6F954F80B1099
:103AC00006F09AF83C49074606F03CFB30B9384608
:103AD0003A4906F055FB10B1384F00E0364F4BF82D
:103AE0000470DFF8F8B0504654F80B1006F082F876
:103AF00044F80BA0069906F087F90BF10C03E25885
:103B00000BF1180B54F80B108246104601920093EB
:103B100006F072F8514606F06FF8019A009B44F8DF
:103B20000B2044F803A0264906F022FAB16B06F0F8
:103B30006BF92449824606F005FB38B95046224904
:103B400006F01EFB20B1DFF880A001E0DFF874A0D2
:103B50000598394606F050F8514606F04BF809F042
:103B6000AFFA1A4BB0F57A7FA8BF4FF47A7098423B
:103B7000B8BF184608F10108154BB8F1030FE85219
:103B800004F1040405F1020506F104067FF435AFE3
:103B900009B0BDE8F08F00BF40040020BD37863576
:103BA000D20400200000484204040020000020410C
:103BB000380400201C03002000007AC300007A4370
:103BC00000004040000096C30000964318FCFFFF31
:103BD000EC0400200103002094190020941300201D
:103BE00013B504460068FEF77BF8236801A81A881D
:103BF00092B242F001021A80637B8DF804300123F7
:103C00008DF805308DF806308DF8073001F056FA42
:103C100002B010BD2DE9F04F994D89B06B6A9A8AB8
:103C200092B20292029A12F4706F1CBF012285F8C0
:103C30002820029A12F4E06F00F014811A8B9A88FF
:103C400022F480621204120C9A80029A960500F106
:103C500009811A88940500F105811A88D00540F180
:103C6000F6801A88D105FCD41A8892B242F4007208
:103C70001A801A889205FCD495F829801421B8F18D
:103C8000010F28BF4FF0010801FB08F3DFF800C265
:103C90007C4F0CEB0302FC6910691689B2F80AA08C
:103CA0005CF803B0204354684AEA0609C5F824B01A
:103CB00085F829800222F861C4F8109020468DF81A
:103CC0000E1003A9ADF80C908DF80F20CDF800C0B0
:103CD00004F030FD08230193A268164203D10A20A4
:103CE00001F04EFBF8E70A20666101F049FB26610E
:103CF0000A2001F045FB019B013B0193ECD10A2016
:103D0000C4F814A001F03CFB0A20666101F038FB06
:103D10000A20266101F034FB0222C4F810A02046DC
:103D20008DF80F2003A91C228DF80E20ADF80C9001
:103D300004F000FD544A93453A6905D142F400125B
:103D40003A614FF4001004E042F480023A614FF40B
:103D5000800001F005F9BBF8042003A822F44072AA
:103D60001204120CABF80420BBF80020142792B206
:103D700042F00102ABF80020BBF8044001F0A6F8C5
:103D800024F03F04059841492404B0FBF1F1240CD0
:103D90000C43A4B2ABF80440BBF800203C4B22F02B
:103DA00001021204120CABF800203A4A07FB083853
:103DB000B0FBF2F24FF49670414392B24FF47A7036
:103DC000002A91FBF0F108BF0122013142F40042C8
:103DD00089B2ABF82010ABF81C20BBF8002098F893
:103DE0000D3092B242F00102ABF80020BBF8002087
:103DF000002422F4816222F002021204120CABF8B9
:103E000000204FF48042ABF80820012603A88DF86B
:103E10000C308DF80D408DF80E408DF80F6001F0DC
:103E20004DF998F80C309DF80F208DF80C308DF876
:103E30000D401AB103A801F041F913E0590903F04C
:103E40001F039E40144A203142F821600AE01A887C
:103E500092B242F400721A809A8822F440721204DC
:103E6000120C9A806A6A938A23F470631B041B0CF9
:103E70009382002385F82A3009B0BDE8F08F00BF97
:103E800094130020001002400054004040420F00F4
:103E900094F00008804F120000E100E0094B30B5BB
:103EA0009D68094B05F480551868084B1C68002371
:103EB0000DB1828800E0A28805495A520233182BBE
:103EC000F6D130BD701B0020F8050020BC05002095
:103ED000FC05002008B540F2E9330D4A1189890735
:103EE00009D5908140F2E933094A1189C9070AD5F9
:103EF0009089C0B208BD013B9BB2002BEDD104F00C
:103F000052FCFF2008BD013B9BB2002BECD1F6E731
:103F10000030014038B5374B374D1A88102422F055
:103F200040021204120C1A801A886B2022F0380208
:103F30001204120C42F030021A801A8892B242F037
:103F400040021A806C61FFF7C5FF8020FFF7C2FFB7
:103F500096202C6101F01FFA6C616820FFF7BAFF10
:103F60000320FFF7B7FF96202C6101F014FA6C6173
:103F70006B20FFF7AFFF0320FFF7ACFF01202C61A0
:103F800001F0FEF96C616A20FFF7A4FF2046FFF7FD
:103F9000A1FF01202C6101F0F3F96C616C20FFF7A7
:103FA00099FF0020FFF796FF01202C6101F0E8F94E
:103FB0006C611920FFF78EFF0020FFF78BFF0120B7
:103FC0002C6101F0DDF96C611C20FFF783FF2046B6
:103FD000FFF780FF01202C6101F0D2F96C611B20FA
:103FE000FFF778FF1820FFF775FF044B01222C61C3
:103FF0001A7038BD00300140000801406E070020F3
:1040000010B5144B07229B894FF47A73013A1FD0E5
:1040100010490C89A40706D5FF248C810D490C8911
:10402000E4070FD507E0591E89B213B904F0BBFBB2
:104030000EE00B46ECE7898989B20028E6D00170D2
:104040000130E3E7591E89B2002BEFD00B46E5E7BC
:10405000012010BD003001403F4A2DE9F84F916822
:1040600040F201130B40934663B13C4B93F82B2075
:1040700093F82C9083F82C20B9EB020918BF4FF06D
:10408000010901E04FF001094FF00008344B5FFADD
:1040900088F41B78A3425CD9324B334E1B68334FF4
:1040A00023B93B685B8926F814304FE03A68072C47
:1040B00094BF12F804A0A246294851469847DBF85D
:1040C00008300546DB0509D5B9F1000F06D0284BAD
:1040D00050461B6829461B68DB699847A5F2EE220B
:1040E00040F2DC5392B29A4288BF3B68DBF808206A
:1040F00088BF5D8942F2010313402BB31D4B197831
:10410000164B01F0030202EB840293F88E0003EBDE
:104110004202D5851A4620B9032915D9012183F811
:104120008E1002EBC403198EDD8D02EB44020D44A8
:10413000598E9B8E0D441D44ADB2A2F890500423BD
:104140002DB295FBF3F5ADB226F8145008F1010835
:104150009CE7BDE8F88F00BF701B0020941300207F
:1041600094150020F8090020D20500201402002038
:10417000D0020020EC1800202DE9F0411F4C137CE8
:10418000A46804F0400C032B35D80C265E431C4C6D
:1041900003F1010835192F7A384229D0335D3BB13C
:1041A000012B05D0022B03D0032B14BF04230323C0
:1041B000144F1E01BC19BCF1000F03D1BE5D023EBD
:1041C000012E15D94E7B16B1277B3E4210D04F6889
:1041D0006668B7420CD38F68A668B74208D81370D8
:1041E00094605560D16082F810801046BDE8F0817F
:1041F0005FFA88F3C7E70020BDE8F081701B00205C
:1042000030000020BCF0000870B50A4C06460D4690
:1042100020460021142208F078FB074804210C22D4
:10422000064B08F067FC304629462246BDE8704040
:10423000A2E700BF3C14002030000020292F000816
:104240002DE9F04F89B00793884B0692B3F902200D
:10425000B3F90030002AB8BF5242002BB8BF5B420E
:104260009A42B8BF1A46824B0492DA781B790292BE
:104270000593002319461F461C46039399461A4688
:10428000029D15B9059D002D44D0022A3CD0774DE2
:10429000DDF818A04E5FCAF100057600AE4203DBE0
:1042A0005546AE42B8BF3546724EDDF81CB031F906
:1042B00006C03BF90160CCEB050505EB060CC679A1
:1042C000642506FB0CF696FBF5F6C57E6FF0040838
:1042D00008FB05F94E4505DB05EB8505AE42B4BF8D
:1042E000B146A946644E9D59654442F2107C65452D
:1042F000A8BF6546DFF898C16545B8BF65469D51C2
:10430000467C75432D130395029D1DB1059D0DB986
:10431000022A53D1594E554C765E594D86EAE677BE
:10432000A7EBE677B7F5206F0C5F10F802C053F8E3
:1043300005801DDC022A15D05027674397FBFCFC43
:10434000042796FBF7F6C6EB0C0CE0444D4FB8F58E
:104350007A5FA8BF4FF47A58B845ACBF45F80380E0
:10436000EF5007E084EAE477A7EBE477642FE3DD1E
:104370000026EE50424D5F597D2597FBF5F78518D5
:10438000AD7A6F43402597FBF5F7059DB5B1022A3D
:1043900068D0DDF810A0DDF80CB00AFB04F50AFBCC
:1043A00007F8CAF5FA7606FB095506FB0B864FF4AB
:1043B000FA7C95FBFCF596FBFCF606E0029D002DD1
:1043C00050D0022A4ED0039E4D46DFF8B0C04FF0C9
:1043D000040B31F80CC00FFA8CF898FBFBFADFF8ED
:1043E000B4B012F80BB00BFB0AFA6FF04F0B9AFB4C
:1043F000FBFAAA44CDF800A0DFF89CA0042531F90F
:104400000AB021F80AC0CBEB08080AF1080C98FBA7
:10441000F5F80AF114055D5953F80CB00AF1140AC5
:10442000AB4453F80C50C34443F80A50164DDDF822
:1044300000A0555D013205FB0BFB20259BFBF5FB26
:10444000CBEB060B114EDA44032A43F80C8021F81B
:1044500006A003F1040301F102017FF411AF09B0DA
:10446000BDE8F08F3E462546AFE700BFD2040020EE
:104470000103002004040020081900203804002053
:104480008819002080C1FFFF941A0020EC0400204E
:10449000F0D8FFFF8E1A0020501400202DE9F04FB5
:1044A00089B00793504B0291B3F904300192039302
:1044B0004E4B0646D9781B79049105934C4B4FF629
:1044C000FF71B3F800A04FEA1A13B1FBF3F1002318
:1044D00006911D461946022D08D1029FDDF80CC039
:1044E0007C791B340CFB04F4641129E03E4C019AE6
:1044F00031F9048057424FEA4804BC4203DB1746B7
:10450000BC42B8BF27463B4CDDF81CC00C5F3F1BCC
:104510003CF901403A19049C7CB9029C277907F1C7
:104520001B0408FB04F4059F24114FB190F811C03F
:104530000CFB02F704EB272402E0C4795443241156
:104540002D4FDFF8C48031F907C004279CFBF7FC2E
:10455000CCEB040C0AFB0CF496F80AB053F8087084
:10456000E4120BFB0474254FB4F5001FA8BF4FF4F1
:104570000014BC42B8BF3C46214F10F80590DA59F0
:1045800043F8084043F807C0C2EB0C0809FB0CF9DC
:10459000DDF818C001350CFB08F807F10C0C1837D2
:1045A000DA5953F80CB04FEAA818934453F80C208A
:1045B000C344DA51377D032D07FB0BF74FEA27275A
:1045C00007EBE91707EB64340E4F43F80C80CC532C
:1045D00006F1010601F1020103F104037FF47BAF50
:1045E00009B0BDE8F08F00BFD20400200103002015
:1045F0004004002004040020380400200000E0FFF4
:1046000070140020EC040020881900202DE9F047E8
:10461000264C636C26485D1C0178824601F0FF023F
:1046200009B12B46F6E76364A4F84820A4F84A20B1
:10463000B4F84A601D4D33B21B2B13DCDFF88090B9
:1046400003EB430809EB0807787804F057F819F8EA
:10465000080004F053F80136B87804F04FF8A5F8D4
:104660004A60E5E7B5F8483040F2C922934205D8E0
:10467000104A0021D15401339BB2F5E7A4F8483029
:1046800001238AF800300C4B40F2CA225A600B4AD0
:1046900000219184118889B241F0010111801A68CA
:1046A00042F001021A60BDE8F08700BF50140020FC
:1046B000B2210020080A00206C00024000040040E3
:1046C000D0060020826A8169436B1144D960416A37
:1046D000914203D98A1A5A60816204E001698A1AF8
:1046E0005A6000228262002280F844201A6842F058
:1046F00001021A6070472DE9F74FA14F9B4697F8CA
:104700004C300C4691465A1C054687F84C200068F0
:10471000224649460C265E43FDF7E2FAAB6868681C
:10472000ADF8043018238DF8063001A902238DF866
:10473000073003F0FFFF2B7B503707EB060A2C688E
:104740000C2B00F2F280DFE813F00D00F000F00017
:10475000F0004D00F000F000F0008200F000F000EA
:10476000F000B600238C874823F001031B041B0CC8
:104770002384218CA288238B844223F073034FEA85
:1047800003434FEA134389B292B243F0700314D04B
:1047900000F50060844210D000F5406084420CD0E7
:1047A00000F58060844208D000F58060844204D027
:1047B00021F0020141F0030107E021F00E0122F493
:1047C000407241F0030142F48072A2802383A4F876
:1047D00034B02184238B23F008031B041B0C43F00B
:1047E000080332E0238C674823F010031B041B0CE2
:1047F0002384218CA288238B844223F4E6434FEA4E
:1048000003434FEA134389B292B243F4E04308D022
:1048100000F50060844204D021F0200141F0300115
:1048200007E021F0E00122F4406241F0300142F45F
:104830008062A2802383A4F838B02184238B23F4E0
:1048400000631B041B0C43F4006323836DE0238C83
:104850004C4823F480731B041B0C2384218CA288F6
:10486000A38B844223F073034FEA03434FEA1343BD
:1048700089B292B243F0700308D000F50060844220
:1048800004D021F4007141F4407107E021F460612B
:1048900022F4405241F4407142F48052A280A3833A
:1048A000A4F83CB02184A38B23F008031B041B0C49
:1048B00043F0080338E0B4F820C0324A2CF4805C9E
:1048C0004FEA0C4C4FEA1C4CA4F820C0B4F820C0AE
:1048D000A388B4F81C802CF4005C28F4E6484FEA66
:1048E00008484FEA0C4C4FEA18484FEA1C4C9442D7
:1048F0009BB248F4E0484CF4405C03D002F50062FF
:10490000944203D123F4804343F48043A380A4F86A
:104910001C80A4F840B0A4F820C0A38B23F400634B
:104920001B041B0C43F40063A383AB7B43B1B4F8BB
:1049300044306FEA43436FEA53439BB2A4F84430D8
:1049400023889BB243F0010323802B7B0C2B10D8D0
:10495000DFE803F0070F0F0F090F0F0F0B0F0F0FFB
:104960000D00343404E0383402E03C3400E04034DC
:10497000BC515046AAF8049003B0BDE8F08F00BFC8
:1049800050140020002C01409648F0B50368964A68
:104990009C8AA4B2E1B211F0010F38D0198821F439
:1049A00000610904090C1980198889B241F48061F9
:1049B0001980002182F8E01092F8E110C1B192F85C
:1049C000E21019B992F8E310FF2911D1012182F800
:1049D000E21092F8E410022904D1198889B241F456
:1049E0000061198092F8E51041F0010119820FE190
:1049F00092F8E51001F0FE01198292F8E330FF2BE6
:104A000000F00681784BFF2183F8E01000E18E076B
:104A100044D5BFF35F8F92F8E440E4B2012C16D185
:104A200092F8E11099B192F8E21081B1198821F45D
:104A300080610904090C1980BFF35F8F198B1988F5
:104A400082F8E64089B241F40071198021E0198BA7
:104A5000BFF35F8F92F8E4406349022C0CD191F8C8
:104A6000E1404CB191F8E21031B1198821F4806134
:104A70000904090C1980C5E092F8E4405A49032C56
:104A800007D191F8E14024B191F8E210002940F0FB
:104A9000B980998889B241F48061B8E04D0764D546
:104AA000012182F8E61092F8E11000293ED092F838
:104AB000E21000293AD092F8E41092F8E04002297E
:104AC00019881FD921F480610904090C19801E8AF4
:104AD000D2F8E810E5B2F6B264B20E551C88A4B262
:104AE00044F400741C80AB1C82F8E030036801358C
:104AF0001C8A6DB2E4B24C55998889B241F4806148
:104B000099802DE089B241F4007119801E8AD2F893
:104B1000E850E1B2F6B264B22E551B8A4C1C64B266
:104B2000DBB203312B5582F8E01019E092F8E24035
:104B30002D4914B991F8EC4054B1198889B241F467
:104B40000071198092F8E030013382F8E03007E01C
:104B50001C88A4B244F480741C80012381F8E230E4
:104B600001680B88DB05FCD452E001F0400101F044
:104B7000FF0509B392F8E0101F8AD2F8E860CCB2C2
:104B8000651C49B2FFB2EDB2775482F8E05092F85A
:104B9000E4606DB2E91C8E4205D1998821F48061F0
:104BA0000904090C998092F8E430AB4230D10E4BE5
:104BB000023483F8E0402BE0270629D592F8E01074
:104BC0004CB2661C12D0D2F8F05001312C5DC9B243
:104BD000E4B21C8292F8E44082F8E01049B28C42C0
:104BE00016D10FE0B81300205014002092F8E31003
:104BF00082F8E050C9B2198292F8E11011B992F826
:104C0000E41029B9998821F480610904090C99807C
:104C100092F8E44092F9E010621C9142094B0FD1E6
:104C2000002283F8E22093F8E63033B102689388DB
:104C300023F440731B041B0C9380034B00221A7057
:104C4000F0BD00BF50140020BE130020084BDA68EE
:104C5000D10709D4DA68520708D4DB6813F0100FC3
:104C60000CBF0420032070470120704702207047CA
:104C700000200240014B33F811007047D20500209C
:104C8000014B33F811007047D418002038B50C6878
:104C90000546204607F07AFE214602462868BDE810
:104CA000384007F07BBE0A88F0B54B888F880E89A4
:104CB000CD88002A3AD1048C834A24F001042404CC
:104CC000240C0484018B048C89B221F0F30141EAA5
:104CD0000616B6B29042A4B246EA070743F00103B3
:104CE00015D002F50062904211D0B0F1804F0ED085
:104CF000A2F5983290420AD002F58062904206D026
:104D000002F58062904218BF24F00A0401D124F019
:104D10000204234307830384038B23F00C031B0447
:104D20001B0C0383038B9BB21D4344E0042A44D134
:104D3000048C654A24F010042404240C0484018BA0
:104D4000048C21F440710905090D41EA063189B24C
:104D500041EA07279042A4B2BFB212D002F5006226
:104D600090420ED0B0F1804F0BD0A2F59832904215
:104D700007D002F58062904203D002F58062904233
:104D800007D124F0200444EA03139BB243F010033C
:104D900004E024F0A00443F01003234307830384BA
:104DA000038B23F440631B041B0C0383038B9BB214
:104DB00043EA0525ADB20583F0BD082A018C3ED13A
:104DC00021F480710904090C0184818B3E4A89B267
:104DD00021F0F301048C41EA0616B6B29042A4B267
:104DE00046EA070712D002F5006290420ED0B0F1F9
:104DF000804F0BD0A2F59832904207D002F5806226
:104E0000904203D002F58062904207D124F40074EE
:104E100044EA03239BB243F4807304E024F4206447
:104E200043F48073234387830384838B23F00C0331
:104E30001B041B0C8383838B9BB21D4341E021F435
:104E400080510904090C0184828B048C22F4407285
:104E50001205120D42EA072242EA06361A4AA4B2A5
:104E60009042B6B212D002F5006290420ED0B0F17C
:104E7000804F0BD0A2F59832904207D002F58062A5
:104E8000904203D002F58062904207D124F4005290
:104E900042EA033292B242F4805205E047F6FF52F2
:104EA000224043F480531A4386830284838B23F485
:104EB00040631B041B0C8383838B9BB243EA052551
:104EC000ADB28583F0BD00BF002C01401F4B10B573
:104ED0005A6802F00C02042A03D0082A04D01C4AA3
:104EE00014E01C4A126811E05A685968C2F3834200
:104EF000C90302F1020201D4174906E0596811F40E
:104F0000003F1449096818BF49084A4302605968BC
:104F1000124AC1F30311545C0168E14041605C68CE
:104F2000C4F30224145D21FA04F484605C68C4F3C1
:104F3000C224145DE140C1605B68C3F381331A444D
:104F4000137CB1FBF3F1016110BD00BF0010024002
:104F500000127A001800002000093D0064000020C3
:104F6000024B1A6922EA00001861704700100240E3
:104F700010B50446FFF76AFE012806D11CB1FFF701
:104F800065FE013CF8E7052010BD002C08BF052098
:104F900010BD8A6810B50C6A036814430A6923F4CB
:104FA000FF4314434A6923F0700314438A6914438E
:104FB000CA6914434A6A14438A6A2243134303604A
:104FC000CB6843600B6883604B68C36010BD0268A8
:104FD0004FF6FE7313400360002303604360836059
:104FE000C3602A4B984222D0294B984229D0294BA2
:104FF000984230D0284B984237D0284B98423ED028
:10500000274B984206D153F8682C42F4700243F8BB
:10501000682C7047234B984206D153F87C2C42F001
:10502000706243F87C2C70471F4B984206D153F8AE
:10503000042C42F00F0243F8042C70471B4B98429B
:1050400006D153F8182C42F0F00243F8182C7047A0
:10505000174B984206D153F82C2C42F4706243F857
:105060002C2C7047134B984206D153F8402C42F435
:10507000704243F8402C70470F4B984205D153F8CB
:10508000542C42F4702243F8542C7047080002401C
:105090001C00024030000240440002405800024020
:1050A0006C00024080000240080402401C040240E0
:1050B00030040240440402405804024010B5104B32
:1050C0004178DB688478DB43C3F30223C3F1040235
:1050D00001FA02F20F21D94021401143094B027815
:1050E0000901C9B21A4482F800130278012051095B
:1050F00002F01F0200FA02F243F8212010BD00BFA7
:1051000000ED00E000E100E02DE9F8434D4B0C46D6
:105110000168013A196081889980072A30D8DFE850
:1051200002F004080C12191E22261A8822805A88BE
:105130000DE05A8822801A8803E01A8852422280A1
:105140005A88524203E05A88524222801A8862806A
:105150009B8814E01A88524222805A880CE05A88B0
:1051600022801A8808E01A8822805A8803E05A8828
:10517000524222801A88524262809B885B42A380FE
:10518000314B1B78002B5AD1B4F9000004F0E8FD34
:105190008046B4F9020004F0E3FD0746B4F90400C8
:1051A00004F0DEFD294D06462968404604F02CFE39
:1051B000E9688146384604F027FE0146484604F077
:1051C0001BFDA9698146304604F01EFE0146484693
:1051D00004F012FD07F074FF69682080404604F077
:1051E00013FE29698146384604F00EFE0146484602
:1051F00004F002FDE9698146304604F005FE0146EF
:10520000484604F0F9FC07F05BFFA968608040465F
:1052100004F0FAFD69698046384604F0F5FD014660
:10522000404604F0E9FC296A0746304604F0ECFDEC
:105230000146384604F0E0FC07F042FFA080BDE8DC
:10524000F88300BF441500202C00002048070020F0
:10525000074B084A1B7812889A4207D3064A1268FD
:10526000907898428CBF0020012070470020704742
:105270002C060020DC0C0020C81A0020034A1378FA
:10528000591C1170024AD05C704700BFF61A00200A
:10529000F81A002010B5FFF7F1FF0446FFF7EEFF04
:1052A00004EB002080B210BD10B5FFF7F3FF0446F9
:1052B000FFF7F0FF04EB004010BD0B4AA2F13003F2
:1052C000197A81420BD00C339342F9D1074B197AEA
:1052D000014004D10C339342F9D1084603E018464B
:1052E0000BB1586870477047600000203000002004
:1052F00000230549DAB2595C814203D00133092BFE
:10530000F7D11A461046704710FE000801460023E8
:105310000448184442688A4203D00C33302BF7D13A
:10532000002070473000002010B500230C245C439F
:105330000549DAB2615C814203D00133042BF5D117
:105340001A46104610BD00BF3000002010B5094AB3
:10535000094913688C6812689342F8D1074A1068AB
:1053600011684FF47A725043001BB0FBF1F002FB5E
:10537000030010BD6C1B002010E000E0440700207B
:1053800038B50446FFF7E2FF0546FFF7DFFF401B95
:10539000A042FAD338BD10B504462CB14FF47A7050
:1053A000FFF7EEFF013CF8E710BD2DE9F04106469E
:1053B0000F4690460025EBB2434512D20024E3B2DB
:1053C000B34209D2084B3846DA68013482F0080249
:1053D000DA60FFF7E0FFF2E73C20FFF7DCFF013582
:1053E000E9E7BDE8F08100BF000C01400A4B1978E5
:1053F0001A4651B1997871B9597831B901229A7028
:10540000064B1A88064B1A80704793781BB9022006
:10541000FF210122C9E77047010300201404002086
:10542000B01A002040F2DB14604308B5074B082295
:105430001A61841E054B2046DA6882F00802DA60A1
:10544000FFF7A9FF1920FFF7A6FFF3E7000C0140C3
:1054500038B50F4C0123A3710546FFF777FFA3680A
:1054600041F28832C31A9342E36084BF002323745D
:10547000237CA060EDB21C440F2B657403D1054B57
:1054800001221A7038BD024A0133137438BD00BFBF
:10549000441500201802002010B50446FFF756FFFF
:1054A000164A536A5062C31AB3F57A6F84BF002359
:1054B00082F8283092F8283023B9A82C1CD1104942
:1054C0000B7006E0022B02D10E490C7001E0242B78
:1054D00001D80D49CC540133DBB282F82830094A97
:1054E000127852000532934206D1044B002283F811
:1054F0002820034B01221A7010BD00BF4415002064
:10550000640200208A0200206502002038B50446AB
:10551000FFF71CFF114B40F6C411DA6AD862821AF9
:105520008A4284BF002283F8302093F830200AB9E1
:105530000F2C11D10A480021017052B1094D182ACF
:10554000154405F8014C04D1012283F83010027093
:1055500038BD013283F8302038BD00BF441500202B
:10556000190200201A02002008B503685B699847F9
:1055700008BD08B503681B69984708BD08B50368EE
:10558000DB68984708BD08B503689B68984708BD65
:1055900008B503685B68984708BD10B5044C2068DF
:1055A000FFF7F6FF18B12068FFF7EDFFF6E710BD33
:1055B000AC06002008B503681B68984708BD064B79
:1055C00010B5044621461868FFF7F4FF034B1A781C
:1055D00054401C7010BD00BFE81A0020F71A0020CC
:1055E00038B5044624200D46FFF7E9FF4D20FFF7AC
:1055F000E6FF002C0CBF3E202120FFF7E0FF054B0B
:10560000284600221A70FFF7DAFF034B1878BDE82E
:105610003840D4E7F71A0020BE06002001460020DB
:10562000DEE7F8B50D4E0E4D0E4CC1B207463068A0
:1056300085F83110FFF7BEFF95F831202378C7F3C6
:10564000072153403068237085F83110FFF7B2FF0F
:10565000237895F8312053402370F8BDE81A0020D4
:1056600044150020F71A0020F8B5194E194C1A4DB0
:105670000746C1B2306884F83210FFF79BFF94F8F8
:1056800032202B78C7F30721534030682B7084F801
:105690003210FFF78FFF94F832202B78C7F30741C1
:1056A000534030682B7084F83210FFF783FF94F872
:1056B00032202B78390E534030682B7084F832102A
:1056C000FFF778FF2B7894F8322053402B70F8BD09
:1056D000E81A002044150020F71A002010B5441ED7
:1056E00014F8011F21B1034B1868FFF763FFF7E7B8
:1056F00010BD00BFBC0800200048EFE77A02010897
:10570000014B186856E700BFBC0E002038B5054CA9
:1057100005465E212068FFF74DFF20682946BDE859
:10572000384047E720060020014B5E21186841E71A
:105730002006002010B50A4C5E280146206805D1DD
:105740005D21FFF737FF20683E2105E05D2903D189
:10575000FFF730FF20683D21BDE810402AE700BF79
:105760002006002010B50446C0B2FFF7E3FFC4F3E3
:105770000720BDE81040FFF7DDBF10B50024094B3E
:10578000E0B21B7883420CD9074B33F81010074B5B
:1057900053F820301BB10B2801D89B68984701347F
:1057A000EDE710BD54200020562000208C09002079
:1057B000054B1B6803EBC00090F9063019420CBF83
:1057C00001204FF0FF307047B80500200A4B1A68DF
:1057D00002EBC002D379FF2B07D008490978994220
:1057E00003D9074A32F8130004E00728D4BF908891
:1057F00040F2DC5000B27047B8050020941500203C
:10580000D205002010B5054C0020218802F06BFF66
:1058100061880120BDE8104002F065BF7A000020D9
:105820002DE9F047D64B1B787B2B00F0818300F2EB
:10583000C8806E2B00F0D98365D8682B00F0948364
:1058400028D8652B00F0648219D8642B40F0DC85E1
:105850000720CC4CFFF7E2FEE620FFF7B0FE6079B0
:10586000FFF7ADFE0020FFF7AAFE94F82301C64B18
:10587000C64A00280CBF1046184600F09CBD662B97
:1058800000F0BC82672B40F0BF851020FFF7C6FEFA
:105890000024ECE26B2B00F0868326D8692B00F005
:1058A0006F836A2B40F0B0851020FFF7B7FEB84B2E
:1058B000B84CD87AFFF783FEB74B1878FFF77FFE16
:1058C0002068FFF7D1FE6068FFF7CEFEB34BB3F957
:1058D0000000FFF7A6FEB24BB3F90000FFF7A1FEF0
:1058E000B04BB3F91E0000F063BD6C2B00F06D836C
:1058F0006D2B40F089850620FFF790FE0020FFF712
:10590000B3FE00F049BD732B00F0BD843DD8702B71
:1059100000F0B283C0F09183712B00F02D84722BC4
:1059200040F07285974C1620FFF778FE0020FFF7B5
:1059300078FEB4F9D000FFF774FE9B4DB4F9D200A5
:10594000FFF76FFEB4F9D400FFF76BFEB5F91E0147
:10595000FFF767FE0020FFF764FE0020FFF784FEDC
:10596000B5F95A000A2390FBF3F0FFF75AFE94F8BA
:105970000401FFF724FE94F80601FFF720FE94F8D7
:105980000501FFF71CFE00F0ACBC762B00F086840E
:105990000AD8742B00F01984752B40F035852F2020
:1059A000FFF73CFE814CDFE3772B00F05D84782B22
:1059B00040F02A857C4C3820FFF730FE04F140058A
:1059C0005DE2D02B00F0C08400F29980CA2B00F079
:1059D000058138D8A42B00F0F18411D8A02B40F019
:1059E00013850C20FFF71AFE714B1868FFF73CFE79
:1059F000704B1868FFF738FE6F4B186800F0DBBC7F
:105A0000C82B00F0DB80C92B40F0FE84FFF736FC8A
:105A10005F4B604CD872FFF731FC5F4B1870FFF79B
:105A200043FC2060FFF740FC6060FFF733FC5B4BFA
:105A30001880FFF72FFC5A4B18805A4B1A7842F007
:105A400002021A7006E1CD2B00F08A8423D8CB2BFA
:105A500000F09380CC2B40F0D784FFF70FFC524C22
:105A600084F85000FFF70AFC84F85100FFF706FCA9
:105A700084F85400FFF702FC84F85500FFF7FEFBA2
:105A800084F85600FFF7FAFB84F85200FFF7F6FBA4
:105A900084F85300DEE0CE2B00F06C84CF2B40F076
:105AA000B384FFF7F7FBFFF7F5FB364C3E4DA4F848
:105AB000D000FFF7EFFBA4F8D200FFF7EBFBA4F850
:105AC000D400FFF7E7FBA5F81E01FFF7E3FBFFF7A4
:105AD000EBFBFFF7DFFB00EB80004000A5F85A006E
